:0300000002066E87
:0C066E00787FE4F6D8FD75812B0206B5FC
:1009DD0054454D503A005461726765743A2B00438B
:0109ED000009
:0A0A1B000208002D010A23010B5010
:10055C00120A0E7FE87E0312097B12098F7BFF7A49
:10056C000979DD7D017F011208C87B2B7D077F0196
:10057C00120A307BFF7A0979E37D017F021208C8E9
:10058C00751602AB09AA087D097F021208A47BFF2D
:10059C007A0979EC7D0B7F021208C87BFF7A097906
:1005AC00EC7D107F011208C81209EE120A0E120817
:1005BC00538F118E108D0F8C0E7B2E7D0B7F0112A5
:1005CC000A30AF11AE10AD0FAC0E12036BAB07AA15
:1005DC00067516037D087F011208A47F007E407DFE
:1005EC001C7C46AB11AA10A90FA80E12010E120307
:1005FC006BE47B107A27F9F81204BC7516047D0C99
:10060C007F011208A4AC08AD09EC120332AB11AA9D
:10061C0010A90FA80E1200197BCD7ACC794C783E1C
:10062C001202B45009120003120A480205B7AC08B2
:10063C00AD09EC120332AB11AA10A90FA80E1200CF
:10064C00197B9A7A99799978BE1202B4600B400999
:10065C00120A41120A3A0205B7120A41120A48025A
:02066C0005B7D0
:03000B000207FDEC
:1007FD00C0E0C0F0C0D0758A9C758CFF050CE50C6F
:10080D0075F0648485F00CE50CC3950A5004D29103
:0B081D008002C291D0D0D0F0D0E032B9
:03001300020828B8
:10082800C0E0C0F0C0D0758BF5758DFF050DE50DE6
:1008380075F0648485F00DE50DC3950B5004D292D4
:0B0848008002C292D0D0D0F0D0E0328D
:10094900D2B7C2B77FF7DFFED2B77F20DFFEA2B7EB
:09095900E433FE7FF7DFFEAF0678
:010962002272
:1009CB00C2B77E04DEFEEF24FF92B77E18DEFED2A6
:0109DB00B764
:0109DC0022F8
:10096300C2B77F02DFFED2B77F02DFFEA2B7E43356
:07097300FE7F18DFFEAF0656
:01097A00225A
:0208EB00AD0757
:1008ED00E4FCECC39408748094805013A804740144
:0F08FD00088002C333D8FC5DFF1209CB0C80E3E7
:01090C0022C8
:10087E00E4FDFCECC3940874809480501612096356
:10088E00EF600DA8047401088002C333D8FC420542
:05089E000C80E0AF0535
:0108A3002232
:10097B00EF4E600F7D027CEFDCFEDDFCEF1F70F0B5
:03098B001E80EDDE
:01098E002246
:0609FF00C2A58F80D2A703
:080A05007F027EEFDEFEDFFC44
:010A0D0022C6
:0A0A2600C2A61209FFC2A7020A05CA
:10090D00CFCDCFCECCCE12042B7C007D0A12042B82
:04091D00ED2430FF96
:0A092100D2A61209FFC2A7020A05C0
:10092B00AE07EEFB7A0064017004ED148009EB64F2
:0E093B00024A7009ED243F4480FF120A262272
:10098F007F38120A267F0C120A267F06120A267F4C
:04099F0001020A2621
:0A0A3000AC0312092BAF04020921E8
:0608C8008B128A13891453
:1008CE0012092BE4FDAB12AA13A9148D82758300B5
:0C08DE001203ECFF60061209210D80E9F6
:0108EA0022EB
:0A07CC00EF24FFFDEE34FFFC7F0A6E
:0807D6008E178F188C198D1A83
:1007DE007F017E00E4FBEBC3951AE5196480F87483
:0E07EE008098500AAC17AD181204190B80E861
:0107FC0022DA
:0408A4008A148B1512
:1008A80012092BAA16EAFF7E00D394007480948064
:0F08B800400D1207CCAC14AD1512090D1A80E6D5
:0108C700220E
:040745008B828A8396
:1007490012092BC3E58364809480400D7F2B120925
:100759002185832085822180107F2D120921C3E400
:100769009582F521E49583F520AA1FEAFF7E00D33F
:10077900940074809480400D1207CCAC20AD2112F6
:05078900090D1A80E6D5
:01078E002248
:0406FA008A248B259E
:1006FE0012092BAA26EAD39400748094804037EA1C
:10070E0024FFFDE434FFFC7F107E001207D6AC24DC
:10071E00AD25CFCDCFCECCCE12042BEF540FFEC3D2
:10072E00940A74809480EE5004243080022437FFA3
:06073E001209211A80BF20
:010744002292
:04078F008A298B2AFE
:1007930012092BAA2BEAFF7E00D394007480948065
:1007A3004026EF24FFFDEE34FFFC7F021207D6AC98
:1007B30029AD2ACFCDCFCECCCE12042BEF540124BA
:0807C30030FF1209211A80CD5C
:0107CB00220B
:0D0A0E001209497FCC1208EB7F440208EB6F
:100853001209497FCC1208EB7FBE1208EB12087E07
:100863008F1212087EEFFEE512FFFDAC06EC1203B9
:0B08730032E4FBFA79807841020217A2
:1009EE00D290D291D292C293C294C295C29602096B
:0109FE00A355
:07000300D290C293D29422B7
:070A3A00D290C295D2962272
:070A4100D290C293C294227F
:070A4800D290C295C2962274
:1009A300758911758BF6758DFFC28FD28ED2ABC24E
:0409B300BBD2AF22E2
:1009B700758911758A18758CFCC28DD28CD2A9C223
:0409C700B9D2AF22D0
:100016000203D7E86480F8E933E83360110460F03E
:10002600ED33EC337009E8FCE9FDEAFEEBFF220450
:1000360060DED3EB9FEA9EE99DE8C2E78CF0C2F74B
:1000460095F0400CE8CCF8E9CDF9EACEFAEBCFFB17
:100056001203A285D0F05804700320D5B3E80470CB
:10006600075002B2D50203E192D5EC0460F7E4CC66
:10007600C0E0C398F8603B94186008400DD0E0FBE0
:100086000203B9E4FBFAC9FC8028E830E406E4C9B7
:10009600FBE4CAFCE830E305E4C9CACBFCE8540734
:1000A6006010F8C3E913F9EA13FAEB13FBEC13FC3F
:1000B600D8F130F52FC3E49CFCEF9BFFEE9AFEEDE2
:1000C60099FDD0E0FBEF4E4D4C701222DB0302038C
:1000D600DEEC2CFCEF33FFEE33FEED33FDED30E7C7
:1000E600EB0203B9EF2BFFEE3AFEED39FDD0E0FB54
:1000F60050130BBB00030203E1ED13FDEE13FEEFFD
:0801060013FFEC13FC0203B926
:10010E00EC4D6011E8497017ED33EC3304600DE4EB
:10011E00FCFFFEFD22E933E8330470F80203D71228
:10012E0003A258046009E4CC248150062850090229
:10013E0003E12840030203DEC0E0EB4A7044B980BD
:10014E0006D0E0FB0203CDEF4E701CBD8008EBFF26
:10015E00EAFEE9FD80EBE98DF0A4FEE5F00201F781
:10016E00E9CDF9EAFEEBFFEF89F0A4FCE5F0CE89CC
:10017E00F0A42EFFE435F0CD89F0A42DFEE435F089
:10018E008067EF4E7005BD80D780C3EF8BF0A4ACB7
:10019E00F0EE8BF0A42CFCE435F0F8EF8AF0A42CF2
:1001AE00E5F038FCE433CB8DF0A42CFCE5F03BF805
:1001BE00EE8AF0A42CFCE5F038F8E433CF89F0A4F5
:1001CE002CFCE5F038CF3400CE89F0A42FFFE5F0FB
:1001DE003EFEE433C98DF0A42EFEE5F039CD8AF053
:1001EE00A42FFFE5F03EFEE43DFD33D0E0FB5007CB
:1001FE000BBB000F0203E1EC2CFCEF33FFEE33FEE2
:06020E00ED33FD0203B90F
:100214000203E1EC5D046005E8590470030203D7AE
:100224001203A2580460F6EC4860F2EC7004FDFE80
:10023400FF22C860DB2481C85009C39860025006BD
:100244000203DE9850CAF582E9294B4A7005AB8255
:100254000203CD75F0007C1A7880C3EF9BEE9AED13
:1002640099400DC3EF9BFFEE9AFEED99FDE842F035
:10027400DC23ACF0D0E0FFD0E0FED0E0FDAB822088
:10028400E7101BEB60BAEC2CFCEF33FFEE33FEED12
:1002940033FD0203B9E803F830E705C0F075F00058
:1002A400EF2FFFEE33FEED33FD40B830E7C280AAF6
:1002B40074F8CC6480CCC86480C8F58204604FC3F1
:1002C400EB9FF5F0EA9E42F0E99D42F0E89C45F090
:1002D400603C501DE5825FFFE582D313CB5BCBF41A
:1002E4002B5582FB50280ABA002409B90020088043
:1002F4001DE5825BFBE582D313CF5FCFF4C3132FDD
:100304005582FF50090EBE00050DBD00010CC3EB64
:100314009FF5F0EA9E42F0E99D42F0E89C45F060CA
:0903240007CC4820E701B3EC22EC
:10032D0075F020800E75F010800575F0087D007E4B
:10033D00007F003392D530D50312054EEC334010BB
:10034D00EF33FFEE33FEED33FDEC33FCD5F0ED2254
:0E035D00E5F0247EA2D513CC92E7CDCEFF2290
:10036B00EDD2E7CD33EC3392D524814006E4FFFE8A
:10037B00FDFC22FCE4CFCECDCC24E0501174FF80E9
:10038B00EDC3CC13CCCD13CDCE13CECF13CF047086
:07039B00F030D5DE02054E33
:1003A200E9D2E7C933E833F892D5EDD2E7CD33ECA1
:0703B20033FC5002B2D5221A
:1003B900EC30E7100FBF000C0EBE00080DBD0004A5
:1003C9000BEB6014A2D5EB13FCED92E7FD2274FF51
:1003D900FCFDFEFF22E480F8A2D574FF13FC7D80AA
:0303E900E480EFBE
:10067A0002055CE493A3F8E493A34003F68001F235
:10068A0008DFF48029E493A3F85407240CC8C33381
:10069A00C4540F4420C8834004F456800146F6DF50
:1006AA00E4800B0102040810204080900A1BE47EBB
:1006BA00019360BCA3FF543F30E509541FFEE49345
:1006CA00A360010ECF54C025E060A840B8E493A30C
:1006DA00FAE493A3F8E493A3C8C582C8CAC583CA37
:1006EA00F0A3C8C582C8CAC583CADFE9DEE780BEEF
:010A250000D0
:1003EC00BB010CE58229F582E5833AF583E02250C6
:1003FC0006E92582F8E622BBFE06E92582F8E22210
:0D040C00E58229F582E5833AF583E4932229
:10041900EF8DF0A4A8F0CF8CF0A428CE8DF0A42EF7
:02042900FE22B1
:10042B00BC000BBE0029EF8DF084FFADF022E4CCB5
:10043B00F875F008EF2FFFEE33FEEC33FCEE9DEC7E
:10044B00984005FCEE9DFE0FD5F0E9E4CEFD22EDC4
:10045B00F8F5F0EE8420D21CFEADF075F008EF2F0E
:10046B00FFED33FD4007985006D5F0F222C398FDFF
:05047B000FD5F0EA229C
:1004800075F008758200EF2FFFEE33FECD33CDCC33
:1004900033CCC58233C5829BED9AEC99E5829840B6
:1004A0000CF582EE9BFEED9AFDEC99FC0FD5F0D693
:1004B000E4CEFBE4CDFAE4CCF9A88222B800C1B9BD
:1004C0000059BA002DEC8BF084CFCECDFCE5F0CBFB
:1004D000F97818EF2FFFEE33FEED33FDEC33FCEB34
:1004E00033FB10D703994004EB99FB0FD8E5E4F9EF
:1004F000FA227818EF2FFFEE33FEED33FDEC33FCDC
:10050000C933C910D7059BE99A4007EC9BFCE99ACF
:10051000F90FD8E0E4C9FAE4CCFB2275F010EF2F14
:10052000FFEE33FEED33FDCC33CCC833C810D70714
:100530009BEC9AE899400AED9BFDEC9AFCE899F84F
:0E0540000FD5F0DAE4CDFBE4CCFAE4C8F922E2
:0E054E00C3E49FFFE49EFEE49DFDE49CFC22BE
:00000001FF
